:100000000C942A000C9447000C9447000C94470071
:100010000C9447000C9447000C9447000C94470044
:100020000C9447000C9447000C94CF030C94A80345
:100030000C9447000C9447000C9447000C94470024
:100040000C9447000C9447000C9447000C94470014
:100050000C94470011241FBECFE5D8E0DEBFCDBF12
:1000600010E0A0E6B0E0E4E3F8E002C005900D92F5
:10007000A038B107D9F720E0A0E8B0E001C01D9298
:10008000A938B207E1F70E9414030C9418040C94E9
:10009000000080EF8ABB8FE08BBB08958FEF8BBB96
:1000A00020E038C03BB3422F50E0BA016C5F7F4F75
:1000B00081E090E0062E02C0880F991F0A94E2F7B3
:1000C000E82FE0953E233BBBC89905C0FA01EA59E9
:1000D000FF4F80810895C99905C0FB01EA59FF4F80
:1000E00080810895CA9905C0FA01E259FF4F8081C5
:1000F0000895CB9905C0FA01EE58FF4F808108950D
:10010000EFE9FFE03197F1F700C000009BB3892BC6
:100110008BBB2F5F243030F280E0089598B3977F37
:1001200098BB882324F498B3906898BB03C098B315
:100130009F7798BB86FF04C098B3906498BB03C0B8
:1001400098B39F7B98BB85FF04C098B3906298BB1F
:1001500003C098B39F7D98BB84FF04C098B390619F
:1001600098BB03C098B39F7E98BB98B3926098BB2E
:10017000EFE9FFE03197F1F700C0000098B39D7FF1
:1001800098BBEFE9FFE03197F1F700C0000083FF73
:1001900004C098B3906898BB03C098B39F7798BB8E
:1001A00082FF04C098B3906498BB03C098B39F7B50
:1001B00098BB81FF04C098B3906298BB03C098B30A
:1001C0009F7D98BB80FF04C088B3806188BB03C05B
:1001D00088B38F7E88BB88B3826088BB8FE99FE03D
:1001E0000197F1F700C0000088B38D7F88BBEFE96D
:1001F000FFE03197F1F700C00000089587B38A6FE0
:1002000087BB83E00E948E008FE79EE30197F1F7A2
:1002100000C0000083E00E948E008FE79EE30197FC
:10022000F1F700C0000083E00E948E008FE79EE39C
:100230000197F1F700C0000082E00E948E0088E282
:100240000E948E0088E00E948E0081E00E948E0055
:1002500086E00E948E008CE00E948E009FEF29EFC6
:1002600080E0915020408040E1F700C000000895F8
:1002700098B3986098BB882324F498B3906898BB8F
:1002800003C098B39F7798BB86FF04C098B390646F
:1002900098BB03C098B39F7B98BB85FF04C098B3FD
:1002A000906298BB03C098B39F7D98BB84FF04C045
:1002B00098B3906198BB03C098B39F7E98BB98B3E6
:1002C000926098BBEFE9FFE03197F1F700C00000C2
:1002D00098B39D7F98BBEFE9FFE03197F1F700C03D
:1002E000000083FF04C098B3906898BB03C098B324
:1002F0009F7798BB82FF04C098B3906498BB03C0FB
:1003000098B39F7B98BB81FF04C098B3906298BB61
:1003100003C098B39F7D98BB80FF04C088B3806101
:1003200088BB03C088B38F7E88BB88B3826088BBDC
:100330008FE99FE00197F1F700C0000088B38D7F3F
:1003400088BBEFE9FFE03197F1F700C000000895A6
:100350001F93CF93DF93CDB7DEB72A970FB6F894EC
:10036000DEBF0FBECDBF6115710581059105D1F4CA
:1003700080E30E9438012CC02AE030E040E050E0E9
:100380000E94F603E1E0F0E0EC0FFD1FE10FF11D2C
:1003900017FDFA95605D6083622F732F842F952F70
:1003A0001F5F01C010E0611571058105910521F7FE
:1003B00011500CC0E1E0F0E0EC0FFD1FE10FF11D6A
:1003C00017FDFA9580810E9438011150112394F78E
:1003D0002A960FB6F894DEBF0FBECDBFDF91CF9146
:1003E0001F910895CF9380918100811133C0809136
:1003F00080008F5F809380008D3741F4809184006E
:100400008F5F809384001092800024C080918400CC
:100410008C3340F010928400809183008F5F809332
:10042000830018C0809183008C3350F010928400B8
:1004300010928300809182008F5F809382000AC0B7
:1004400080918200883130F01092840010928300F5
:100450001092820060918400CDEC6C9F612D11247C
:1004600066956695669580E00E94600360918400C1
:100470006C9F812D1124869586958695880F982FDF
:10048000990F990F890F681B81E00E9460036091AA
:1004900083006C9F612D112466956695669582E0B8
:1004A0000E946003609183006C9F812D11248695CA
:1004B00086958695880F982F990F990F890F681B3D
:1004C00083E00E946003609182006C9F612D112483
:1004D00066956695669584E00E946003609182004F
:1004E0006C9FC12D1124C695C695C695CC0F8C2F37
:1004F000880F880FC80F6C1B85E00E946003CF91A6
:100500000895EF92FF920F931F93CF93DF9300D044
:1005100000D000D0CDB7DEB786E0E0E6F0E0DE0147
:10052000119601900D928A95E1F710928200109237
:1005300083001092840081E0809381000E948E00ED
:1005400080EC0E948E000E944E00182FE12C00E0EB
:10055000F12C58C00E944E001817E1F30E944E0083
:10056000182F8823C1F1E1E0F0E0EC0FFD1FEF0D43
:10057000F11D80830E943801898190E0C0979A81A3
:10058000880F282F220F220F820F890F805380930C
:1005900082008B8190E0C0979C81880F282F220FCA
:1005A000220F820F890F8053809383008D8190E00A
:1005B000C0979E81880F282F220F220F820F890F4C
:1005C0008053809384008FE99FE00197F1F700C08A
:1005D0000000F3940F5F023009F0BCCF0E944E0080
:1005E0001817E1F30E944E00182F833659F4E39454
:1005F00082EC0E948E008AE30E94380183EC0E9404
:100600008E0000E091E09E1530F710928100269652
:100610000FB6F894DEBF0FBECDBFDF91CF911F9113
:100620000F91FF90EF9008950E94FE000E944900F4
:1006300082EF91E090938800809387008CE70E947E
:1006400094030E9459030E944E00C82F833631F450
:100650000E9481020E944E00C817E1F386E80E94C2
:100660008E006091840070E080E090E00E94A8011C
:1006700085E80E948E008AE30E94380183E80E9488
:100680008E006091830070E080E090E00E94A801FD
:1006900082E80E948E008AE30E94380180E80E946E
:1006A0008E006091820070E080E090E00E94A801DE
:1006B000CACF84B38FEF84BB91B381BB12BA0895C4
:1006C00012BA8230A1F028F4882349F0813059F021
:1006D0001DC08430A1F078F08530A9F017C082B336
:1006E000816082BB13C082B3826082BB0FC082B3C1
:1006F000846082BB0BC082B3886082BB07C082B3B8
:10070000806182BB03C082B3806282BBE62FF0E0CF
:10071000EA58FF4F8081809585BB8FEC97E0019769
:10072000F1F700C00000089593B7916093BF93B7AD
:10073000946093BF93B7906893BF93B7986093BF4B
:100740008CBF89B7826089BF8FB780688FBF0895DB
:100750001F920F920FB60F9211242F933F934F9336
:100760005F936F937F938F939F93AF93BF93EF9319
:10077000FF93E0918500F09186000995FF91EF913C
:10078000BF91AF919F918F917F916F915F914F91A9
:100790003F912F910F900FBE0F901F9018951F92B1
:1007A0000F920FB60F9211242F933F934F935F93A5
:1007B0006F937F938F939F93AF93BF93EF93FF9329
:1007C000E0918700F09188000995FF91EF91BF912A
:1007D000AF919F918F917F916F915F914F913F91D9
:1007E0002F910F900FBE0F901F901895A1E21A2E17
:1007F000AA1BBB1BFD010DC0AA1FBB1FEE1FFF1FC5
:10080000A217B307E407F50720F0A21BB30BE40B14
:10081000F50B661F771F881F991F1A9469F760955B
:100820007095809590959B01AC01BD01CF01089515
:04083000F894FFCF6A
:100834003030303030303738395C3435362A313264
:10084400332D63303D2B3F065B4F666D7D077F6F15
:00000001FF
